:020000040800F2
:1000000000000220790E0008C90E0008C90E000881
:10001000C90E0008C90E0008C90E00080000000043
:10002000000000000000000000000000C90E0008F1
:10003000C90E000800000000C90E0008C90E000823
:10004000C90E0008C90E0008C90E0008C90E000834
:10005000C90E0008C90E0008C90E0008C90E000824
:10006000C90E0008C90E0008C90E0008C90E000814
:10007000C90E0008C90E0008C90E0008C90E000804
:10008000C90E0008C90E0008C90E000800000000D3
:10009000000000000000000000000000C90E000881
:1000A000C90E0008C90E0008C90E0008C90E0008D4
:1000B000C90E0008C90E0008C90E0008C90E0008C4
:1000C000C90E0008C90E0008C90E0008C90E0008B4
:1000D000C90E0008C90E0008C90E00080000000083
:1000E000C90E0008C90E0008C90E00080000000073
:1000F000000000000000000000000000C90E000821
:1001000000000000C90E0008C90E0008C90E000852
:1001100000000000000000000000000000000000DF
:10012000C90E0008C90E0008C90E0008C90E000853
:10013000C90E0008000000000000000000000000E0
:10014000000000000000000000000000C90E0008D0
:10015000C90E0008C90E0008C90E0008C90E000823
:10016000C90E0008C90E00080000000000000000D1
:10017000000000000000000000000000000000007F
:1001800000000000C90E0008000000000000000090
:08019000C90E0008C90E0008A9
:1001980081F0004102E000BF83F0004330B54FEA30
:1001A80041044FEA430594EA050F08BF90EA020F9D
:1001B8001FBF54EA000C55EA020C7FEA645C7FEA30
:1001C800655C00F0E2804FEA5454D4EB5555B8BF53
:1001D8006D420CDD2C4480EA020281EA030382EAC4
:1001E800000083EA010180EA020281EA0303362D56
:1001F80088BF30BD11F0004F4FEA01314FF4801C29
:100208004CEA113102D0404261EB410113F0004F3A
:100218004FEA03334CEA133302D0524263EB4303F1
:1002280094EA050F00F0A780A4F10104D5F1200E8F
:100238000DDB02FA0EFC22FA05F2801841F10001EA
:1002480003FA0EF2801843FA05F359410EE0A5F1BE
:1002580020050EF1200E012A03FA0EFC28BF4CF0EF
:10026800020C43FA05F3C01851EBE37101F00045A5
:1002780007D54FF0000EDCF1000C7EEB00006EEBB2
:100288000101B1F5801F1BD3B1F5001F0CD349083C
:100298005FEA30004FEA3C0C04F101044FEA445293
:1002A80012F5800F80F09A80BCF1004F08BF5FEA1A
:1002B800500C50F1000041EB045141EA050130BDFA
:1002C8005FEA4C0C404141EB0101013C28BFB1F50C
:1002D800801FE9D291F0000F04BF01460020B1FA57
:1002E80081F308BF2033A3F10B03B3F120020CDA2A
:1002F8000C3208DD02F1140CC2F10C0201FA0CF008
:1003080021FA02F10CE002F11402D8BFC2F1200C6C
:1003180001FA02F120FA0CFCDCBF41EA0C01904022
:10032800E41AA2BF01EB0451294330BD6FEA04046B
:100338001F3C1CDA0C340EDC04F11404C4F1200256
:1003480020FA04F001FA02F340EA030021FA04F368
:1003580045EA030130BDC4F10C04C4F1200220FABF
:1003680002F001FA04F340EA0300294630BD21FAFD
:1003780004F0294630BD94F0000F83F4801306BFC3
:1003880081F480110134013D4EE77FEA645C18BFB7
:100398007FEA655C29D094EA050F08BF90EA020F4E
:1003A80005D054EA000C04BF1946104630BD91EA46
:1003B800030F1EBF0021002030BD5FEA545C05D149
:1003C8004000494128BF41F0004130BD14F5800488
:1003D8003CBF01F5801130BD01F0004545F0FE41FC
:1003E80041F470014FF0000030BD7FEA645C1ABF31
:1003F800194610467FEA655C1CBF0B46024650EA68
:10040800013406BF52EA033591EA030F41F4002193
:1004180030BD00BF90F0000F04BF0021704730B519
:100428004FF4806404F132044FF000054FF00001EE
:1004380050E700BF90F0000F04BF0021704730B5AF
:100448004FF4806404F1320410F0004548BF404284
:100458004FF000013EE700BF42004FEAE2014FEAD9
:1004680031014FEA02701FBF12F07F4393F07F4FB4
:1004780081F06051704732F07F4208BF704793F0B7
:100488007F4F04BF41F40021704730B54FF46074CA
:1004980001F0004521F000411CE700BF50EA0102CD
:1004A80008BF704730B54FF000050AE050EA010276
:1004B80008BF704730B511F0004502D5404261EBE6
:1004C80041014FF4806404F132045FEA915C3FF427
:1004D800D8AE4FF003025FEADC0C18BF03325FEAC4
:1004E800DC0C18BF033202EBDC02C2F1200300FA75
:1004F80003FC20FA02F001FA03FE40EA0E0021FA9A
:1005080002F11444BDE600BF70B54FF0FF0C4CF487
:10051800E06C1CEA11541DBF1CEA135594EA0C0F39
:1005280095EA0C0F00F0DEF82C4481EA030621EA74
:100538004C5123EA4C5350EA013518BF52EA0335AF
:1005480041F4801143F4801338D0A0FB02CE4FF061
:100558000005E1FB02E506F00042E0FB03E54FF091
:100568000006E1FB03569CF0000F18BF4EF0010E89
:10057800A4F1FF04B6F5007F64F5407404D25FEA85
:100588004E0E6D4146EB060642EAC62141EA555138
:100598004FEAC52040EA5E504FEACE2EB4F1FD0C7A
:1005A80088BFBCF5E06F1ED8BEF1004F08BF5FEAF8
:1005B800500E50F1000041EB045170BD06F00046AA
:1005C80046EA010140EA020081EA0301B4EB5C0457
:1005D800C2BFD4EB0C0541EA045170BD41F480114F
:1005E8004FF0000E013C00F3AB8014F1360FDEBF74
:1005F800002001F0004170BDC4F10004203C35DA50
:100608000C341BDC04F11404C4F1200500FA05F3D2
:1006180020FA04F001FA05F240EA020001F0004273
:1006280021F0004110EBD37021FA04F642EB0601E9
:100638005EEA430E08BF20EAD37070BDC4F10C0413
:10064800C4F1200500FA04F320FA05F001FA04F2D7
:1006580040EA020001F0004110EBD37041F10001C3
:100668005EEA430E08BF20EAD37070BDC4F12005CE
:1006780000FA05F24EEA020E20FA04F301FA05F236
:1006880043EA020321FA04F001F0004121FA04F2DE
:1006980020EA020000EBD3705EEA430E08BF20EAAE
:1006A800D37070BD94F0000F0FD101F000464000E8
:1006B80041EB010111F4801F08BF013CF7D041EA6A
:1006C800060195F0000F18BF704703F0004652006E
:1006D80043EB030313F4801F08BF013DF7D043EA3F
:1006E8000603704794EA0C0F0CEA135518BF95EAF5
:1006F8000C0F0CD050EA410618BF52EA4306D1D17C
:1007080081EA030101F000414FF0000070BD50EA9A
:10071800410606BF1046194652EA430619D094EA24
:100728000C0F02D150EA013613D195EA0C0F05D10E
:1007380052EA03361CBF104619460AD181EA030162
:1007480001F0004141F0FE4141F470014FF000001A
:1007580070BD41F0FE4141F4780170BD70B54FF0B5
:10076800FF0C4CF4E06C1CEA11541DBF1CEA135535
:1007780094EA0C0F95EA0C0F00F0A7F8A4EB050417
:1007880081EA030E52EA03354FEA013100F088800E
:100798004FEA03334FF0805545EA131343EA1263D7
:1007A8004FEA022245EA111545EA10654FEA00268C
:1007B8000EF000419D4208BF964244F1FD0404F545
:1007C800407402D25B084FEA3202B61A65EB0305A1
:1007D8005B084FEA32024FF480104FF4002CB6EB5E
:1007E800020E75EB030E22BFB61A754640EA0C00DE
:1007F8005B084FEA3202B6EB020E75EB030E22BF1E
:10080800B61A754640EA5C005B084FEA3202B6EB5E
:10081800020E75EB030E22BFB61A754640EA9C001D
:100828005B084FEA3202B6EB020E75EB030E22BFED
:10083800B61A754640EADC0055EA060E18D04FEAAB
:10084800051545EA16754FEA06164FEAC30343EA4B
:1008580052734FEAC2025FEA1C1CC0D111F4801F18
:100868000BD141EA00014FF000004FF0004CB6E711
:1008780011F4801F04BF01430020B4F1FD0C88BFB0
:10088800BCF5E06F3FF6AFAEB5EB030C04BFB6EBBB
:10089800020C5FEA500C50F1000041EB045170BDAE
:1008A8000EF0004E4EEA113114EB5C04C2BFD4EBDB
:1008B8000C0541EA045170BD41F480114FF0000E5F
:1008C800013C90E645EA060E8DE60CEA135594EADB
:1008D8000C0F08BF95EA0C0F3FF43BAF94EA0C0FDE
:1008E8000AD150EA01347FF434AF95EA0C0F7FF453
:1008F80025AF104619462CE795EA0C0F06D152EAA7
:1009080003353FF4FDAE1046194622E750EA41068A
:1009180018BF52EA43067FF4C5AE50EA41047FF49B
:100928000DAF52EA43057FF4EBAE12E74FF0FF3C00
:1009380006E000BF4FF0010C02E000BF4FF0010CD1
:100948004DF804CD4FEA410C7FEA6C5C4FEA430C4A
:1009580018BF7FEA6C5C1BD001B050EA410C0CBF99
:1009680052EA430C91EA030F02BF90EA020F0020FB
:10097800704710F1000F91EA030F58BF994208BF62
:1009880090422CBFD8176FEAE37040F0010070471F
:100998004FEA410C7FEA6C5C02D150EA013C07D176
:1009A8004FEA430C7FEA6C5CD6D152EA033CD3D0C1
:1009B8005DF8040B704700BF8446104662468C46BB
:1009C8001946634600E000BF01B5FFF7B7FF0028EE
:1009D80048BF10F1000F01BD4DF808EDFFF7F4FF17
:1009E8000CBF012000205DF808FB00BF4DF808EDA2
:1009F800FFF7EAFF34BF012000205DF808FB00BFC5
:100A08004DF808EDFFF7E0FF94BF012000205DF8E6
:100A180008FB00BF4DF808EDFFF7CEFF94BF01209B
:100A280000205DF808FB00BF4DF808EDFFF7C4FF94
:100A380034BF012000205DF808FB00BF4FEA410CDD
:100A48007FEA6C5C02D150EA013C0AD14FEA430CC0
:100A58007FEA6C5C02D152EA033C02D14FF00000FD
:100A680070474FF0010070474A0011D212F500128A
:100A780011D20DD56FF47873B3EB62520ED44FEAEE
:100A8800C12343F0004343EA505323FA02F070476E
:100A98004FF00000704750EA013002D14FF0FF30AC
:100AA80070474FF00000704710B5054C237833B9F4
:100AB800044B13B10448AFF300800123237010BD29
:100AC80050000020000000001020000808B5034B6B
:100AD8001BB103490348AFF3008008BD00000000C4
:100AE8005400002010200008034AD2F8883043F44C
:100AF8007003C2F88830704700ED00E00000000085
:100B0800F8B500F057F900F06FF900F08DF90126FB
:100B180000252C4600E00134A34B1B6913F4005F49
:100B2800F9D042F20F739C4200D80024A4F51C535C
:100B3800113B9E4A934220D801350024052D00DD43
:100B48000025032E00DD01263046FFF773FC9FEDDC
:100B5800921B41EC100B00F0DFF951EC100B90A345
:100B6800D3E90023FFF7D0FC01F030FA052DD3D8E4
:100B7800DFE805F00A1B43729FCC42F210739C42D7
:100B8800DCD901360024D9E7894B9A6942F48012EE
:100B98009A61D3F8182442F48032C3F81824824AA0
:100BA800936943F440339361B6E7814AD2F8183425
:100BB80043F48033C2F8183402F50062936943F4B1
:100BC80040339361002205E0794FBB6943F010037D
:100BD800BB61013282424FF000038B41F4D3002203
:100BE80005E0734FBB6943F48013BB610132824255
:100BF8004FF000038B41F4D38EE76D4B9A6942F4B2
:100C080080129A61D3F8182442F00102C3F818241C
:100C1800654A936943F440339361002207E0644FC7
:100C2800D7F8183443F00103C7F818340132824268
:100C38004FF000038B41F2D3002207E05C4FD7F856
:100C4800183443F48033C7F81834013282424FF025
:100C580000038B41F2D35FE7554B9A6942F4801247
:100C68009A61D3F8182442F48032C3F818244E4A03
:100C7800936943F4803343F002039361002205E053
:100C8800494FBB6943F00203BB61013282424FF016
:100C980000038B41F4D3002205E0434FBB6943F4C2
:100CA8000033BB61013282424FF000038B41F4D321
:100CB80032E73F4B9A6942F480129A61D3F81824BC
:100CC80042F48032C3F81824374A936943F4003356
:100CD80043F001039361002205E0334FBB6943F001
:100CE8000103BB61013282424FF000038B41F4D310
:100CF800002205E02C4FBB6943F48033BB6101320D
:100D080082424FF000038B41F4D305E7284BD3F818
:100D1800182442F00102C3F818249A6942F010021C
:100D28009A61214A936943F0030393614FF0000CE1
:100D380011E01F4BD3F8182442F00102C3F818241D
:100D48009A6942F010029A61174A936943F00303C3
:100D580093610CF1010C84454FF000038B41E8D3FB
:100D68004FF0000C11E0124B9A6942F480129A611C
:100D7800D3F8182442F48032C3F818240A4A936935
:100D880043F4403393610CF1010C84454FF00003A8
:100D98008B41E8D3C0E600BF000000000000084017
:100DA80000000000006AD84000080240CE6C040031
:100DB800000002400A4AD2F8303843F00103C2F872
:100DC8003038084B1A6842F480721A609A6842F404
:100DD80080729A609A6942F480129A61704700BFE3
:100DE80000300240000002400D4AD2F8303843F08B
:100DF8000203C2F830380B4BD3F8002442F001024A
:100E0800C3F80024D3F8082442F00102C3F80824E8
:100E1800D3F8182442F48032C3F81824704700BF6E
:100E280000300240000002400F4A136B43F00403F5
:100E380013630E4B1A6842F005021A601A6822F012
:100E480040621A605A6822F003025A609A6842F0B7
:100E580005029A60DA6822F00F02DA609A6942F4B1
:100E680040329A61704700BF0038024000080240D3
:100E7800DFF834D00D480E490E4A002302E0D4585A
:100E8800C4500433C4188C42F9D30B4A0B4C0023CA
:100E980001E013600432A242FBD3FFF725FE00F005
:100EA80017F8FFF72DFE7047000002200000002011
:100EB800500000204020000850000020A40100201D
:100EC800FEE70000014B1868704700BF00000020D3
:100ED80070B50D4D0D4C641BA4100026A64209D117
:100EE8000B4D0C4C01F090F8641BA4100026A64290
:100EF80005D170BD55F8043B98470136EEE755F823
:100F0800043B98470136F2E73820000838200008EB
:100F1800382000083C200008F8B52DED028B55EC70
:100F2800114B57EC106B00F07BF822462B462046FD
:100F38002946B0EE408AF0EE608AFFF77FFD78B967
:100F48000022002330463946FFF746FDF0B1002263
:100F5800002320462946FFF73FFD40B19FED288B2F
:100F6800B0EE480AF0EE680ABDEC028BF8BD45EC1D
:100F7800104B00F049F80028F2D000220023204648
:100F88002946FFF733FD0028EAD02EE0B0EE480AE4
:100F9800F0EE680A00F038F8A0B151EC180B002206
:100FA8000023FFF719FD0028DAD047EC106B00F09A
:100FB8002BF80028D4D045EC104B00F025F8002879
:100FC800CED012E047EC106B00F01EF80028E4D0F9
:100FD80045EC104B00F018F80028DED053EC182B25
:100FE80051EC180BFFF72AFD20B9FFF76BFF2223FE
:100FF8000360B5E7FFF766FF21230360B0E700BF92
:10100800000000000000F03F82B08DED000B019859
:1010180040F0004000F58010C00F02B0704700BFDC
:101028002DE9F04F55EC114B25F0004353EA04002D
:1010380057EC106B93B012D1B3198D4987F4002285
:1010480052419842914120D222462B463046394699
:10105800FFF7A4F841EC100B13B0BDE8F08F8548FA
:1010680027F0004A8245B846314613D908F140486E
:1010780008F5801858EA0108E6D123197C4985F457
:101088000022524198459141DED39FED770B13B072
:10109800BDE8F08FA946224616D08342E6D85046CE
:1010A80000F0B680B8F1000F16DB002A40F0C580CA
:1010B800DFF8CCC1634540F0FD83B9F1000FC0F201
:1010C800068547EC106BC7E7002EBDD15345BBD84A
:1010D80000F024845046E5E7DFF8A8C1634500F234
:1010E800E383DFF898C1634542D8002A40F01284B0
:1010F800B9F1804F33D0934647EC106B04910290BE
:10110800009300F097FD0499009B0298002953D0A2
:101118004FEAD872013A52EA0B0100F0A0800BF1B5
:10112800FF3B5BEA020B00F0BA839FED4F7B8DED2E
:10113800067BB3F1844F40F2A7804F4A93424F4B4E
:1011480040F226849A4500F2DA84B9F1000FC0F221
:10115800DA84002013B0BDE8F04F00F02DBE32460F
:101168003B4630463946FFF7CFF941EC100B73E7A1
:101178004FEA235CACF2FF3CBCF1140F40F38C84C3
:10118800CCF1340C22FA0CFE0EFA0CFC944500F05B
:101198000185002A40F0BE83B9F1804F0491029086
:1011A8000093DCD047EC106B00F044FD0499009BE1
:1011B8000298002953D18B46314A28F04041914288
:1011C80002D0BAF1000FA3D1B9F1000F07DA53EC3E
:1011D800102B2B490020FFF7C1FA41EC100BB8F196
:1011E800000FBFF639AF0AF1404A0AF5801A5AEAE9
:1011F8000B0A40F0768453EC102B10461946FEF784
:10120800CBFF02460B46FFF7A9FA41EC100B23E788
:10121800002C7FF42BAF0AF1404303F580133343CE
:101228003FF433AF154B9A4540F22884B9F1000FCB
:10123800C0F29F8445EC104B0EE74FF0000B47ECD3
:10124800106B04910290009300F0F4FC0499009B49
:1012580002980029B0D04FEAD872013A5FE73246C7
:101268003B46CAE7AFF30080000000000000F03FF3
:101278000000F0FF0000F07F0000F043FFFFEF3FA9
:101288000000F03FFFFF3F43DB4B08EA0303002267
:1012980053B951EC100BD94BFFF736F941EC100B51
:1012A80010EE900A6FF034020315A3F2FF339A1878
:1012B800D34B0B92C0F3130040F07F56984246F48C
:1012C800401640F3CD83CF4B984240F322849FEDE4
:1012D800B47B8DED087B9FEDB47B8DED047B9FED9A
:1012E800B07B8DED107B01320B92A6F5801600279E
:1012F80053EC102B92465046DDE904233146FEF7A5
:101308004BFFB346DDE90423804689465046314603
:10131800CDE90CABFEF742FF02460B460020BA4966
:10132800FFF71CFA8C46834663465A4640464946B0
:10133800CDE90EBCFFF7E8F80A460146CDE90012F0
:10134800CDE90212002100917610DDE900AB46F0EC
:10135800005606F500230020D91906460F46024616
:101368000B4650465946FFF7CFF802460B46404613
:101378004946FEF711FFDDE90423804689463046D9
:101388003946FEF709FF02460B46DDE90C01FEF778
:1013980003FF52465B46FFF7B7F802460B46404646
:1013A8004946FEF7F9FEDDE90E23FFF7ADF8DDE962
:1013B8000267CDE9040132463B4630463946FFF71D
:1013C800A3F87BA3D3E9002306460F46FFF79CF852
:1013D80079A3D3E90023FEF7E1FE32463B46FFF747
:1013E80093F877A3D3E90023FEF7D8FE32463B46AD
:1013F800FFF78AF874A3D3E90023FEF7CFFE32463D
:101408003B46FFF781F872A3D3E90023FEF7C6FE37
:1014180032463B46FFF778F86FA3D3E90023FEF77F
:10142800BDFE3246804689463B4630463946FFF780
:101438006BF802460B4640464946FFF765F85246A8
:1014480006460F465B46DDE90201FEF7A7FEDDE929
:101458000423FFF759F832463B46FEF79FFE5246F3
:1014680006460F465B4650465946FFF74DF8674B10
:10147800002280468946FEF791FE32463B46CDE97A
:101488000C67FEF78BFE00260F4632463B46504659
:101498005946FFF739F85D4B82468B4600223046A5
:1014A8003946FEF779FE42464B46FEF775FE024680
:1014B8000B46DDE90C01FEF76FFEDDE90223FFF7BD
:1014C80023F83246804689463B46DDE90401FFF7AA
:1014D8001BF802460B4640464946FEF75FFE80462B
:1014E800894642464B4650465946FEF757FE002667
:1014F8003BA3D3E9002330460F46FFF705F85246D1
:101508005B4682468B4630463946FEF745FE024624
:101518000B4640464946FEF73FFE33A3D3E9002376
:10152800FEF7F2FF02460B463046394616461F467E
:101538002FA3D3E90023FEF7E7FF02460B46304608
:101548003946FEF72BFEDDE91023FEF727FE80461D
:101558000B988946FEF76EFF424606460F464B46F5
:1015680050465946CDE902ABFEF718FEDDE90823DF
:10157800FEF714FE32463B46FEF710FE00203246C8
:101588003B4682468B46FEF707FEDDE90823FEF759
:1015980003FEDDE90223FEF7FFFD39E0AFF300802B
:1015A8000000000000000000000000000000F03F04
:1015B800EF4E454A287ECA3F65DBC9934A86CD3F30
:1015C80001411DA96074D13F4D268F515555D53F16
:1015D800FFAB6FDBB66DDB3F033333333333E33FAE
:1015E800000000E009C7EE3FFD033ADC09C7EE3F03
:1015F800F5015B14E02F3EBE0000F07F0000404381
:101608008E98030079B60B000000F03F00000840F8
:1016180002460B4640464946FEF7BEFDCDE90201AB
:101628000023CDE900450093DDE9008920464246C4
:1016380029464B46FEF7B0FD52465B46FEF764FF6F
:10164800224606460F462B46DDE90201FEF75CFFFF
:1016580002460B4630463946FEF7A0FD4246044690
:101668000D464B4650465946CDE90245FEF74CFF1C
:1016780006460F46204629463B463246FEF78EFD73
:10168800BD4B994204460D46884640F3238101F13B
:101698003F4303F5E003034340F05382A2A3D3E999
:1016A8000023DDE90201FEF779FD02460B462046DC
:1016B800294614461D4632463B46FEF76DFD024656
:1016C8000B4620462946FFF7AFF9002840F039823B
:1016D8004FF400734344C3F30A52A84CA2F2FF32FA
:1016E8001441C3F3130AC2F11402002004EA0301EF
:1016F8004AF4801A4AFA02FA0B460246B8F1000F79
:1017080030463946B8BFCAF1000AFEF745FD024621
:101718000B4606460F46DDE90201FEF73FFD4FEA9C
:101728000A5B0D46002482A3D3E9002320462946FC
:10173800FEF7EAFE3246804689463B462046294661
:10174800FEF72AFD02460B46DDE90201FEF724FDFD
:1017580079A3D3E90023FEF7D7FE02460B462046BD
:10176800294614461D4676A3D3E90023FEF7CCFE8E
:1017780002460B4620462946FEF710FD06460F4650
:1017880032463B4640464946FEF708FD42464B4630
:1017980004460D46FEF700FD02460B463046394624
:1017A800FEF7FAFC2246804689462B462046294603
:1017B800FEF7AAFE64A3D3E9002306460F46FEF708
:1017C800A3FE63A3D3E90023FEF7E6FC32463B46BB
:1017D800FEF79AFE60A3D3E90023FEF7DFFC32464A
:1017E8003B46FEF791FE5EA3D3E90023FEF7D4FC47
:1017F80032463B46FEF788FE5BA3D3E90023FEF79B
:10180800CDFC32463B46FEF77FFE02460B4620469D
:101818002946FEF7C1FC06460F4632463B4620469F
:101828002946FEF771FE02460B46304639461646F3
:101838001F4600224FF08043FEF7AEFC02460B46DF
:1018480030463946FEF78AFF424606460F464B4663
:1018580020462946FEF758FE42464B46FEF79EFCB8
:1018680002460B4630463946FEF796FC22462B4682
:10187800FEF792FC0B46024641490020FEF78CFC1D
:101888000B465B44B3F5801FC0F253811946DDE96E
:101898000623FEF739FE41EC100BFFF7DDBB9FED89
:1018A800347B8DED067B44E44FF0020B002A7FF475
:1018B800C6AC21E4B9F1804F3FF451ACDFF8C8C0A1
:1018C800E1457FF418AC47EC106B13B0BDE8F04F5E
:1018D80000F082BADFF8B4C021F00043634540F25B
:1018E800ED80284B0B4403430AD132463B46FEF7B2
:1018F80053FCDDE90223FFF78DF800283FF4E8AE3A
:10190800DDE9060100220023FFF770F8003818BF50
:1019180001201FE404910290009343E4002C7FF41B
:1019280093AB7FE4AFF30080FE822B654715973CAD
:1019380000000000432EE63FEF39FAFE422EE63F54
:10194800396CA80C615C20BED0A4BE726937663EB3
:10195800F16BD2C541BDBB3E2CDE25AF6A56113FA7
:1019680093BDBE166CC1663F3E5555555555C53F8E
:10197800000000000000F0BFFFFF8F400000F0FFF4
:101988000000F03F00346F3F0000E03FFFCB904085
:101998009A45C0F0E080A44B9A454FF0000200F24F
:1019A800EC8051EC100BA04BFEF7F6FB8CA3D3E9AF
:1019B800002306460F46FEF7A7FD8BA3D3E90023B5
:1019C8008046894630463946FEF79EFD974B82464B
:1019D8008B46002230463946FEF796FD02460B46F6
:1019E80083A1D1E90001FEF7D7FB32463B46FEF75B
:1019F8008BFD02460B4600208D49FEF7CDFB324693
:101A0800CDE900013B4630463946FEF77DFD0246EA
:101A18000B46DDE90001FEF777FD77A3D3E9002344
:101A2800FEF772FD02460B4650465946FEF7B4FBD8
:101A380006460F4632463B4640464946FEF7AEFB51
:101A4800002042464B4682468B46FEF7A5FB0246DF
:101A58000B4630463946FEF79FFBCDE90201DFE52C
:101A68009FED677B8DED087B9FED677B8DED047B9C
:101A78009DED087B00278DED107B39E4B9F1000F4F
:101A88009FED5F0BBFF6E8AA05F1004300EE104A90
:101A980000EE903AFFF7E0BA002A7FF43BAFCCF1B2
:101AA800140C43FA0CFE0EFA0CFC9C4579D0DFF8B6
:101AB80078C163453FF401ABFFF71ABB5C4A934218
:101AC80000F28580DDE90023934692462AE65649CE
:101AD800002032463B46FEF741FE41EC100BFFF773
:101AE800BBBABBF1010F7FF4B7AA10EE901A10EE43
:101AF800102A01F1004343EC102BFFF7ADBAB9F1FE
:101B0800000F7FF726AB002013B0BDE8F04F00F0C0
:101B18005BB99FED3F7B8DED087B9FED3F7B8DEDA6
:101B2800107B9FED3F7B4FF480278DED047BFFF703
:101B3800DFBB41EC100B504600F086F851EC100B5F
:101B4800A5E6DDE9060100220023FEF74FFF003875
:101B580018BF0120D8E7DDE9060100220023FEF7BF
:101B680045FF003818BF0120B9F1000FBFF6F2AAEF
:101B7800CAE79FED230BFFF76FBADDE906010023E3
:101B8800FEF734FF003818BF0120B9F1000FBBDCA5
:101B9800FFF7E0BA9AB10EF0010ECEF1020BFFF793
:101BA8004EBB214A93423FF488AAB9F1804F3FF4D3
:101BB800D6AA0EF0010ECEF1020BFFF79DBAB9F1CD
:101BC800804F3FF4CCAA4FF0020BFFF795BA1B15D4
:101BD800A3F2FE334FF4801242FA03F37AE500BF12
:101BE800000000604715F73F44DF5DF80BAE543E38
:101BF800555555555555D53FFE822B654715F73F29
:101C08000000000000000000000000000000F03F9D
:101C18000000004003B8E23F06D0CF43EBFD4C3E46
:101C2800000000000000F83F0000F03F0000D03F37
:101C38000000E03F51EC100B024621F0004343EC5A
:101C4800102B70470000000070B555EC104BC5F321
:101C58000A5206462B4672BB25F00043234329D07F
:101C68003B4B204629460022FEF74EFC394B9E424C
:101C780004460D4652DBC1F30A520B46363A4CF283
:101C880050318E4223DC164440F2FE7296421EDC2E
:101C9800002E34DC16F1350F38DB6FF31E53363661
:101CA80043EA065520462C4B29460022FEF72CFC19
:101CB80041EC100B70BD40F2FF718A42DFD1224621
:101CC80020462946FEF76AFA41EC100B70BD002D3C
:101CD80017A1D1E9000107DB15A3D3E90023FEF71B
:101CE80013FC41EC100B70BD13A1D1E9000110A346
:101CF800D3E90023FEF708FC41EC100BF3E76FF380
:101D08001E5343EA065545EC104B70BD002D0CA13F
:101D1800D1E9000102DA0CA1D1E9000108A3D3E955
:101D28000023FEF7F1FB41EC100B70BDAFF3008010
:101D38009C7500883CE4377E9C7500883CE437FE3F
:101D480059F3F8C21F6EA50159F3F8C21F6EA58199
:101D580000005043B03CFFFF0000903C10B52DED53
:101D6800028BB0EE408AF0EE608A0446FFF7AAF8CC
:101D7800B0EE480AF0EE680ABDEC028B046010BDB4
:101D880000B5034683B051EC100B83B1024601F154
:101D98000043CDE90023DDE90023FEF7B5FB41EC64
:101DA800100B222003B05DF804EBFFF7D7BF024603
:101DB8000B46EEE7000000009FED010BFFF7E0BFC8
:101DC80000000000000000109FED010BFFF7D8BFD6
:101DD80000000000000000702DE9F84F784855EC2D
:101DE800104BA84300F0A680002D21462A46234622
:101DF80056DD2C1500F0D280C2F31302E107A4F2DD
:101E0800FF3742F4801203D4D90F01EB42025B0082
:101E18005200002602EBD3727F105B001624B446F2
:101E28004FF400110CEB010090424FEAD3754FEAD2
:101E3800430303DC00EB010C121A0E44013C05EBD2
:101E480042024FEA5101EDD1A04620254FF0004053
:101E58000AE03CD0510001EBD371013D0A464FEA3C
:101E680043034FEA50003ED0944508EB000EF0DAE9
:101E7800BEF1000F0EEB00080CDBE146A2EB0C01F3
:101E88009E4588BF01F1FF314900CC46A3EB0E0304
:101E98000444E0E7B8F1000FEFDB0CF10109EDE7CE
:101EA80025F0004020433FD0002D6AD1D90A153AC9
:101EB8005B050029FAD0CE02144618460A466ED5AC
:101EC80020254FF0FF31E840641A024394E79E450D
:101ED80002D94FEA4C01BEE7BEF1000F0EEB000835
:101EE80024DB0021D2E7194312D0DFF8D8A0DFF8AD
:101EF800D8B0DAE90001DBE90023FEF74DF9DAE9A9
:101F0800008902460B4640464946FEF779FDF8B976
:101F18006508711001F17F5101F5001101EB0753BC
:101F280045EAC67243EC102BBDE8F88FB8F1000FF4
:101F3800B3DAD6E722462B4620462946FEF7E4FACE
:101F480022462B46FEF72AF941EC100BBDE8F88F24
:101F5800B4F1FF3FDAE90001DBE900232BD0FEF7FB
:101F68001DF9DAE9008902460B4640464946FEF764
:101F78003DFD10B3A31C04F1020508BF01366D082E
:101F8800C7E722462B4620462946FEF705F90246B2
:101F98000B46FEF7E3FB41EC100BC5E708460023B0
:101FA8005200D502194603F10103F9D5C3F1200502
:101FB80000FA03F387E70136ABE70134A8E700BF6F
:101FC8000000F07F3020000828200008D0B50C4B16
:101FD800002206460F46FEF797FAFEF745FD04462F
:101FE800FEF718FA074B0022FEF78EFA02460B4658
:101FF80030463946FEF7D0F8FEF736FD2146D0BD0B
:102008000000F03D0000F041F8B500BFF8BC08BC86
:102018009E467047F8B500BFF8BC08BC9E4670479E
:1020280059F3F8C21F6EA501000000000000F03F40
:04203800D50A0008BD
:04203C00B10A0008DD
:1020400004000020000000006C000020D4000020EC
:102050003C01002000000000000000000000000023
:102060000000000000000000000000000000000070
:102070000000000000000000000000000000000060
:102080000000000000000000000000000000000050
:0400000508000E7968
:00000001FF
