:020000040800F2
:1000000000000220A5040008F5040008F50400081B
:10001000F5040008F5040008F504000800000000DD
:10002000000000000000000000000000F5040008CF
:10003000F504000800000000F5040008F5040008BD
:10004000F5040008F5040008F5040008F5040008AC
:10005000F5040008F5040008F5040008F50400089C
:10006000F5040008F5040008F5040008F50400088C
:10007000F5040008F5040008F5040008F50400087C
:10008000F5040008F5040008F5040008000000006D
:10009000000000000000000000000000F50400085F
:1000A000F5040008F5040008F5040008F50400084C
:1000B000F5040008F5040008F5040008F50400083C
:1000C000F5040008F5040008F5040008F50400082C
:1000D000F5040008F5040008F5040008000000001D
:1000E000F5040008F5040008F5040008000000000D
:1000F000000000000000000000000000F5040008FF
:1001000000000000F5040008F5040008F5040008EC
:1001100000000000000000000000000000000000DF
:10012000F5040008F5040008F5040008F5040008CB
:10013000F5040008000000000000000000000000BE
:10014000000000000000000000000000F5040008AE
:10015000F5040008F5040008F5040008F50400089B
:10016000F5040008F504000800000000000000008D
:10017000000000000000000000000000000000007F
:1001800000000000F504000800000000000000006E
:08019000F5040008F504000865
:1001980010B5054C237833B9044B13B10448AFF3B9
:1001A80000800123237010BD000000200000000023
:1001B8004005000808B5034B1BB103490348AFF3DA
:1001C800008008BD00000000040000204005000871
:1001D800034AD2F8883043F47003C2F88830704775
:1001E80000ED00E008B500F02FF80FE0134B1B6995
:1001F80013F4005F03D0124B1878012814D0114C67
:10020800207800F081F8207800F0F4F80B4B1B6997
:1002180013F4005FEAD10A4B1B78002BE6D100F0FB
:1002280065F8074B1870E1E7064C217800F065F88F
:100238002070034B00221A70E1E700BF000802405B
:100248001C0000201D0000202449D1F8302842F06D
:100258000103C1F83038224B186840F480701860E8
:10026800986840F480709860986940F480109861AC
:1002780042F00302C1F83028D3F8002442F001020A
:10028800C3F80024D3F8082442F00102C3F8082474
:10029800D3F8182442F48032C3F81824114A136B97
:1002A80043F004031363104B1A6842F005021A6006
:1002B8001A6822F040621A605A6822F003025A60F3
:1002C8009A6842F005029A60DA6822F00F02DA6052
:1002D8009A6942F440329A61704700BF0030024088
:1002E8000000024000380240000802400023002BB2
:1002F80001DD012070470133F9E7481CC0B2052829
:1003080000D900207047000005286DD8DFE800F00C
:1003180003142536495C354B9A6942F480129A6178
:10032800D3F8182442F48032C3F81824304A936969
:1003380043F44033936170472C4B9A6942F01002A2
:100348009A61D3F8182442F48032C3F81824284A52
:10035800936943F4403393617047244B9A6942F49C
:1003680080129A61D3F8182442F00102C3F81824C5
:100378001F4A936943F44033936170471B4B9A6952
:1003880042F480129A61D3F8182442F48032C3F8F8
:100398001824174A936943F4803343F002039361A6
:1003A8007047124B9A6942F480129A61D3F8182464
:1003B80042F48032C3F818240D4A936943F4003399
:1003C80043F0010393617047084BD3F8182442F0B7
:1003D8000102C3F818249A6942F010029A61044A8B
:1003E800936943F003039361704700BF0000024024
:1003F80000080240012812D002281BD0032824D06C
:1004080004282DD0052836D040B900231F4A137080
:100418001F4A13701F4A13701F4A137070471B4BF3
:1004280001221A7000231A4A13701A4A13701A4AC2
:100438001370E1E70023154A1370154A0121117062
:10044800144A1370144A1370D8E700230F4A137024
:100458000F4A13700F4A012111700F4A1370CFE72A
:1004680000230A4A13700A4A13700A4A13700A4B87
:1004780001221A70C6E70123044A1370044A137054
:10048800044A1370044A1370BEE700BF210000201D
:10049800200000201F0000201E000020DFF834D0BC
:1004A8000D480E490E4A002302E0D458C4500433C4
:1004B800C4188C42F9D30B4A0B4C002301E013609B
:1004C8000432A242FBD3FFF783FE00F011F8FFF7D6
:1004D80089FE704700000220000000200000002074
:1004E800600500080000002024000020FEE700004E
:1004F80070B50D4D0D4C641BA4100026A64209D101
:100508000B4D0C4C00F018F8641BA4100026A642F2
:1005180005D170BD55F8043B98470136EEE755F80C
:10052800043B98470136F2E75805000858050008CB
:10053800580500085C050008F8B500BFF8BC08BC01
:100548009E467047F8B500BFF8BC08BC9E46704789
:04055800BD010008D9
:04055C0099010008F9
:04000005080004A546
:00000001FF
