:020000040800F2
:100000000000022079040008C9040008C90400089F
:10001000C9040008C9040008C90400080000000061
:10002000000000000000000000000000C9040008FB
:10003000C904000800000000C9040008C904000841
:10004000C9040008C9040008C9040008C90400085C
:10005000C9040008C9040008C9040008C90400084C
:10006000C9040008C9040008C9040008C90400083C
:10007000C9040008C9040008C9040008C90400082C
:10008000C9040008C9040008C904000800000000F1
:10009000000000000000000000000000C90400088B
:1000A000C9040008C9040008C9040008C9040008FC
:1000B000C9040008C9040008C9040008C9040008EC
:1000C000C9040008C9040008C9040008C9040008DC
:1000D000C9040008C9040008C904000800000000A1
:1000E000C9040008C9040008C90400080000000091
:1000F000000000000000000000000000C90400082B
:1001000000000000C9040008C9040008C904000870
:1001100000000000000000000000000000000000DF
:10012000C9040008C9040008C9040008C90400087B
:10013000C9040008000000000000000000000000EA
:10014000000000000000000000000000C9040008DA
:10015000C9040008C9040008C9040008C90400084B
:10016000C9040008C90400080000000000000000E5
:10017000000000000000000000000000000000007F
:1001800000000000C904000800000000000000009A
:08019000C9040008C9040008BD
:1001980010B5054C237833B9044B13B10448AFF3B9
:1001A80000800123237010BD000000200000000023
:1001B8001405000808B5034B1BB103490348AFF306
:1001C800008008BD0000000004000020140500089D
:1001D800034AD2F8883043F47003C2F88830704775
:1001E80000ED00E008B500F02BF80CE0114B1B699E
:1001F80013F4005F03D0104B1878012811D00F4B6F
:10020800187800F07DF80B4B1B6913F4005FEDD1F3
:10021800094B1B78002BE9D100F064F8064B1870E5
:10022800E4E7064C217800F064F82070024B0022C5
:100238001A70E4E7000802401C0000201D0000209E
:100248002449D1F8302842F00103C1F83038224B54
:10025800186840F480701860986840F4807098605E
:10026800986940F48010986142F00302C1F8302880
:10027800D3F8002442F00102C3F80024D3F808247C
:1002880042F00102C3F80824D3F8182442F480325B
:10029800C3F81824114A136B43F004031363104B7B
:1002A8001A6842F005021A601A6822F040621A6061
:1002B8005A6822F003025A609A6842F005029A606E
:1002C800DA6822F00F02DA609A6942F440329A61E1
:1002D800704700BF00300240000002400038024072
:1002E800000802400023002B01DD01207047013384
:1002F800F9E7481CC0B2052800D900207047000063
:10030800052800F2A880DFE800F0031D3853708D3F
:10031800514B9A6942F480129A61D3F8182442F436
:100328008032C3F818244D4A936943F440339361EB
:1003380000234B4A13704B4A13704B4A13704B4AB5
:1003480013707047444B9A6942F010029A61D3F8CF
:10035800182442F48032C3F81824404A936943F4BD
:10036800403393613E4B01221A7000233D4A1370BB
:100378003D4A13703D4A13707047374B9A6942F4EF
:1003880080129A61D3F8182442F00102C3F81824A5
:10039800324A936943F4403393610023304A13701F
:1003A800304A01211170304A1370304A1370704777
:1003B800294B9A6942F480129A61D3F8182442F4BE
:1003C8008032C3F81824254A936943F4803343F0F4
:1003D800020393610023224A1370224A1370224AAF
:1003E80001211170214A137070471B4B9A6942F41E
:1003F80080129A61D3F8182442F48032C3F8182482
:10040800164A936943F4003343F0010393610023D0
:10041800134A1370134A1370134A1370134B0122B3
:100428001A7070470C4BD3F8182442F00102C3F835
:1004380018249A6942F010029A61084A936943F0B5
:10044800030393610123064A1370064A1370064A90
:100458001370064A137070470000024000080240FB
:1004680021000020200000201F0000201E00002086
:10047800DFF834D00D480E490E4A002302E0D45864
:10048800C4500433C4188C42F9D30B4A0B4C0023D4
:1004980001E013600432A242FBD3FFF799FE00F09B
:1004A80011F8FFF79FFE70470000022000000020AF
:1004B800000000203405000800000020240000206F
:1004C800FEE7000070B50D4D0D4C641BA41000260E
:1004D800A64209D10B4D0C4C00F018F8641BA4106F
:1004E8000026A64205D170BD55F8043B9847013651
:1004F800EEE755F8043B98470136F2E72C0500086B
:100508002C0500082C05000830050008F8B500BFC8
:10051800F8BC08BC9E467047F8B500BFF8BC08BCDC
:040528009E46704734
:04052C00BD01000805
:040530009901000825
:040000050800047972
:00000001FF
