:020000040800F2
:100000000000022001040008510400085104000807
:1000100051040008510400085104000800000000C9
:100020000000000000000000000000005104000873
:1000300051040008000000005104000851040008A9
:10004000510400085104000851040008510400083C
:10005000510400085104000851040008510400082C
:10006000510400085104000851040008510400081C
:10007000510400085104000851040008510400080C
:100080005104000851040008510400080000000059
:100090000000000000000000000000005104000803
:1000A00051040008510400085104000851040008DC
:1000B00051040008510400085104000851040008CC
:1000C00051040008510400085104000851040008BC
:1000D0005104000851040008510400080000000009
:1000E00051040008510400085104000800000000F9
:1000F00000000000000000000000000051040008A3
:1001000000000000510400085104000851040008D8
:1001100000000000000000000000000000000000DF
:10012000510400085104000851040008510400085B
:100130005104000800000000000000000000000062
:100140000000000000000000000000005104000852
:10015000510400085104000851040008510400082B
:1001600051040008510400080000000000000000D5
:10017000000000000000000000000000000000007F
:100180000000000051040008000000000000000012
:080190005104000851040008AD
:1001980010B5054C237833B9044B13B10448AFF3B9
:1001A80000800123237010BD000000200000000023
:1001B8009C04000808B5034B1BB103490348AFF37F
:1001C800008008BD00000000040000209C04000816
:1001D800034AD2F8883043F47003C2F88830704775
:1001E80000ED00E010B500F0A9F800F0C1F800F04B
:1001F800DFF800210123084620E0002325E0013034
:10020800013100E001334A4A9342FBDD012323E038
:100218000020484A946944F480149461D2F8184440
:1002280044F48034C2F81844434CA26942F4403282
:10023800A26105296AD0052900DD00213E4A12691C
:1002480012F4005F01D1012BD7D03B4A126912F496
:10025800005F01D0002BD2D00428D9DC0428E8D8CC
:1002680001A252F820F000BF1B0200088502000816
:10027800A7020008C9020008EF0200082D4A946985
:1002880044F010049461D2F8184444F48034C2F85D
:100298001844294CA26942F44032A261C9E7254AB0
:1002A800946944F480149461D2F8184444F0010429
:1002B800C2F81844204CA26942F44032A261B8E75F
:1002C8001C4A946944F480149461D2F8184444F4A4
:1002D8008034C2F81844184CA26942F4803242F0C3
:1002E8000202A261A5E7134A946944F48014946158
:1002F800D2F8184444F48034C2F818440E4CA26969
:1003080042F4003242F00102A26192E7094AD2F8AF
:10031800184444F00104C2F81844946944F01004E5
:100328009461054CA26942F00302A26183E700BF11
:100338009F86010000000240000802400A4AD2F8E5
:10034800303843F00103C2F83038084B1A6842F4D9
:1003580080721A609A6842F480729A609A6942F4CC
:1003680080129A61704700BF0030024000000240CE
:100378000D4AD2F8303843F00203C2F830380B4B3C
:10038800D3F8002442F00102C3F80024D3F808246B
:1003980042F00102C3F80824D3F8182442F480324A
:1003A800C3F81824704700BF003002400000024024
:1003B8000F4A136B43F0040313630E4B1A6842F0A1
:1003C80005021A601A6822F040621A605A6822F020
:1003D80003025A609A6842F005029A60DA6822F0CD
:1003E8000F02DA609A6942F440329A61704700BF9E
:1003F8000038024000080240DFF834D00D480E49AA
:100408000E4A002302E0D458C4500433C4188C4266
:10041800F9D30B4A0B4C002301E013600432A242CB
:10042800FBD3FFF7D5FE00F011F8FFF7DBFE7047AE
:10043800000002200000002000000020BC0400088A
:10044800000000201C000020FEE7000070B50D4DE4
:100458000D4C641BA4100026A64209D10B4D0C4C70
:1004680000F018F8641BA4100026A64205D170BD40
:1004780055F8043B98470136EEE755F8043B984792
:100488000136F2E7B4040008B4040008B404000814
:10049800B8040008F8B500BFF8BC08BC9E46704711
:0C04A800F8B500BFF8BC08BC9E467047C9
:0404B400BD0100087E
:0404B800990100089E
:0400000508000401EA
:00000001FF
