:020000040800F2
:1000000000000220190800086908000869080008B3
:100010006908000869080008690800080000000075
:100020000000000000000000000000006908000857
:100030006908000800000000690800088906000837
:1000400069080008690800086908000869080008CC
:1000500069080008690800086908000869080008BC
:1000600069070008B906000869080008690800085F
:10007000690800086908000869080008690800089C
:100080006908000869080008690800080000000005
:1000900000000000000000000000000069080008E7
:1000A000690800086908000869080008690800086C
:1000B000690800086908000869080008690800085C
:1000C000690800086908000869080008690800084C
:1000D00069080008690800086908000800000000B5
:1000E00069080008690800086908000800000000A5
:1000F0000000000000000000000000006908000887
:100100000000000069080008690800086908000884
:1001100000000000000000000000000000000000DF
:1001200069080008690800086908000869080008EB
:100130006908000800000000000000000000000046
:100140000000000000000000000000006908000836
:1001500069080008690800086908000869080008BB
:10016000690800086908000800000000000000009D
:10017000000000000000000000000000000000007F
:1001800000000000690800080000000000000000F6
:08019000690800086908000875
:1001980010B5054C237833B9044B13B10448AFF3B9
:1001A80000800123237010BD18000020000000000B
:1001B800B408000808B5034B1BB103490348AFF363
:1001C800008008BD000000001C000020B4080008E2
:1001D800034AD2F8883043F47003C2F88830704775
:1001E80000ED00E008B500F031F800F095F800F0F7
:1001F800FFF800F049F90349034B187800F068F953
:10020800F9E700BF340000200000002000B500F02E
:100218000700C0F1070CBCF1040F28BF4FF0040C15
:10022800031D062B0FD9C31E4FF0FF3E0EFA0CF02C
:1002380021EA000199400EFA03FE22EA0E0241EA81
:1002480002005DF804FB0023EEE700002E4A136B62
:1002580043F0070313632D4B1A6842F005021A6036
:100268002B490A6840F2051C42EA0C020A60294A36
:10027800106840F001001060586820F003005860D2
:10028800486820F013004860506820F00100506072
:10029800986840F005009860886840EA0C0088601B
:1002A800906840F001009060D86820F00F00D86096
:1002B800C86820F4437020F00300C860D06820F0BC
:1002C8000300D060986940F440309861886940F430
:1002D80098108861916941F480319161DA6842F03F
:1002E8005002DA601A6822F0F0021A601A6842F4C2
:1002F80000221A609A6842F440229A605A6A22F0F0
:10030800F0025A62704700BF0038024000080240FD
:100318000000024000040240334A136823F0F80347
:1003280043F080031360002393602F4B9B6813F006
:100338000C0FFAD12C4A136823F0807313602A4BF0
:100348001B6813F0007FFAD1274A136823F410239F
:100358001360254B1B6813F4003FFAD1224B1A682F
:1003680022F480221A601A6842F001021A601E4BB9
:100378001B6813F0020FFAD01B4B00225A605A6810
:100388005A605A6842F008025A605A6842F4C052E9
:100398005A605A6822F480325A605A6842F0806281
:1003A8005A609A6842F002029A609A689A609A685B
:1003B80042F480529A609A689A609A6822F04042A1
:1003C8009A609A6842F000529A6008490A6842F0B6
:1003D80003020A601A6842F080721A60024B1B68B6
:1003E80013F0007FFAD0704700380240003C02400A
:1003F80038B5214A536C43F480435364A2F58032E4
:10040800936823F4704343F400539360936823F490
:10041800706343F400739360184B1A6842F00C023F
:100428001A605A6822F00C025A609A6842F00C026C
:100438009A60DA6842F00C02DA60114DE86800222E
:100448001146C0F30220FFF7E1FE0001C0B20D4CD7
:1004580084F809034FF400732360E868002211460A
:10046800C0F30220FFF7D2FE0001C0B284F80803EF
:100478004FF48073236038BD00380240003C0140CF
:1004880000ED00E000E100E04FF0E0231A6922F0FF
:1004980001021A611A6942F002021A611A6942F0ED
:1004A80004021A615A6902F07F4242F4BB3242F0F8
:1004B800FF025A619A6902F07F4242F4BB3242F06D
:1004C800FF029A611A6942F001021A61704700003E
:1004D80070B50B189B790A5C03EB430313445E4A1F
:1004E80032F81340052800F2B180DFE800F0031C61
:1004F80039567492594E337883F001033370584D4E
:10050800AB6943F00103AB61204600F0C7F83378CC
:1005180083F001033370AB6943F48033AB61204649
:1005280000F0BCF870BD4F4E337883F00103337090
:100538004B4DAB6943F48033AB61AB6943F00203C5
:10054800AB61204600F0AAF8337883F001033370DA
:10055800AB6943F40033AB61204600F09FF8E1E754
:10056800414E337883F0010333703D4DAB6943F45A
:100578000033AB61AB6943F01003AB61204600F078
:100588008DF8337883F001033370AB6943F480133B
:10059800AB61204600F082F8C4E7344E337883F02C
:1005A800010333702E4A936943F480139361304DED
:1005B800AB6943F00103AB61204600F06FF8337874
:1005C80083F001033370AB6943F48033AB61204699
:1005D80000F064F8A6E7274E337883F00103337000
:1005E800234A936943F480339361234DAB6943F005
:1005F8000203AB61204600F051F8337883F0010321
:100608003370AB6943F40033AB61204600F046F821
:1006180088E71A4E337883F001033370164DAB69BF
:1006280043F40033AB61AB6943F00103AB6120468F
:1006380000F034F8337883F001033370AB6943F486
:100648008033AB61204600F029F86BE70A4A9369CA
:1006580043F48033936165E70400002049000020DB
:10066800000002404800002047000020460000200B
:100678000004024045000020000802404400002019
:10068800044A138801331380034A13880133138003
:10069800704700BF4A00002042000020034B1B881F
:1006A8008342FBD3014B00221A8070474A00002086
:1006B800234A536943F008035361224B1B6913F023
:1006C800080F07D1204A137883F0010313701F4BDA
:1006D80000221A801D4B1B88B3F5FA6F18D31A4AEB
:1006E800137883F001031370194B1A7819498B5C3E
:1006F8000133DBB28B54022B02D90B4600219954EB
:10070800144B9A5C144B1A70104B00221A807047D5
:10071800473B9BB2B3F5F16F11D80B4A137883F0BE
:10072800010313700D4A13780133DBB21370062BE3
:1007380002D9134600221A70044B00221A8070470F
:10074800003C0140000802404D000020420000200B
:1007580040000020340000204F000020000000204E
:10076800244A536943F004035361234B1B6913F074
:10077800040F07D1214A137883F001031370204B2B
:1007880000221A801E4B1B88B3F5FA6F1AD31B4A36
:10079800137883F0010313701A4B19781A4A0A4424
:1007A800D3790133DBB2D371022B02D9134600226D
:1007B800DA71154B0B44DA79144B1A70104B00227E
:1007C8001A807047473B9BB2B3F5F16F11D80B4ABB
:1007D800137883F0010313700A4A13780133DBB2EC
:1007E8001370052B02D9134600221A70044B0022FD
:1007F8001A807047003C0140000802404C0000206D
:100808004200002040000020340000204E0000205C
:10081800DFF834D00D480E490E4A002302E0D458C0
:10082800C4500433C4188C42F9D30B4A0B4C002330
:1008380001E013600432A242FBD3FFF7C9FC00F0C9
:1008480011F8FFF7CFFC70470000022000000020DD
:1008580018000020D40800081800002050000020CC
:10086800FEE7000070B50D4D0D4C641BA41000266A
:10087800A64209D10B4D0C4C00F018F8641BA410CB
:100888000026A64205D170BD55F8043B98470136AD
:10089800EEE755F8043B98470136F2E7CC08000824
:1008A800CC080008CC080008D0080008F8B500BF3C
:1008B800F8BC08BC9E467047F8B500BFF8BC08BC39
:0408C8009E46704791
:0408CC00BD01000862
:0408D0009901000882
:1008D40006000000C4090103F40183060901C701ED
:0808E400E2040E029001000085
:0400000508000819CE
:00000001FF
