:020000040800F2
:100000000000022099040008E9040008E90400083F
:10001000E9040008E9040008E90400080000000001
:10002000000000000000000000000000E9040008DB
:10003000E904000800000000E9040008E9040008E1
:10004000E9040008E9040008E9040008E9040008DC
:10005000E9040008E9040008E9040008E9040008CC
:10006000E9040008E9040008E9040008E9040008BC
:10007000E9040008E9040008E9040008E9040008AC
:10008000E9040008E9040008E90400080000000091
:10009000000000000000000000000000E90400086B
:1000A000E9040008E9040008E9040008E90400087C
:1000B000E9040008E9040008E9040008E90400086C
:1000C000E9040008E9040008E9040008E90400085C
:1000D000E9040008E9040008E90400080000000041
:1000E000E9040008E9040008E90400080000000031
:1000F000000000000000000000000000E90400080B
:1001000000000000E9040008E9040008E904000810
:1001100000000000000000000000000000000000DF
:10012000E9040008E9040008E9040008E9040008FB
:10013000E9040008000000000000000000000000CA
:10014000000000000000000000000000E9040008BA
:10015000E9040008E9040008E9040008E9040008CB
:10016000E9040008E90400080000000000000000A5
:10017000000000000000000000000000000000007F
:1001800000000000E904000800000000000000007A
:08019000E9040008E90400087D
:1001980010B5054C237833B9044B13B10448AFF3B9
:1001A80000800123237010BD000000200000000023
:1001B8003405000808B5034B1BB103490348AFF3E6
:1001C800008008BD0000000004000020340500087D
:1001D800034AD2F8883043F47003C2F88830704775
:1001E80000ED00E008B500F07DF820E0364B1B6913
:1001F80013F4005F03D0354B1878012825D0344C10
:10020800207800F0CFF82378012B27D0022B30D0AC
:10021800032B39D0042B42D0052B4BD000232D4A79
:1002280013702D4A13702D4A13702D4A1370264BE4
:100238001B6913F4005FD9D1244B1B78002BD5D14F
:1002480000F0A2F8214B1870D0E7214C217800F07B
:10025800A2F820701D4B00221A70D0E71D4A012118
:10026800117000221C490A701C490A701C490A7046
:10027800CCE7002217490A7017490120087017496E
:100288000A7017490A70C3E7002212490A70124916
:100298000A7012490120087011490A70BAE7002251
:1002A8000C490A700C490A700C490A700C4A012161
:1002B8001170B1E70123074A1370074A1370074A00
:1002C8001370074A1370B2E70008024020000020AC
:1002D800210000201F0000201E0000201D0000201B
:1002E8001C0000202449D1F8302842F00103C1F84D
:1002F8003038224B186840F480701860986840F4D1
:1003080080709860986940F48010986142F0030208
:10031800C1F83028D3F8002442F00102C3F80024C1
:10032800D3F8082442F00102C3F80824D3F81824AB
:1003380042F48032C3F81824114A136B43F00403C3
:100348001363104B1A6842F005021A601A6822F00B
:1003580040621A605A6822F003025A609A6842F0B2
:1003680005029A60DA6822F00F02DA609A6942F4AC
:1003780040329A61704700BF0030024000000240DE
:1003880000380240000802400023002B01DD012054
:1003980070470133F9E7481CC0B2052800D900208E
:1003A8007047000005286DD8DFE800F003142536F3
:1003B800495C354B9A6942F480129A61D3F8182443
:1003C80042F48032C3F81824304A936943F4403326
:1003D800936170472C4B9A6942F010029A61D3F8E6
:1003E800182442F48032C3F81824284A936943F445
:1003F800403393617047244B9A6942F480129A61A2
:10040800D3F8182442F00102C3F818241F4A93694C
:1004180043F44033936170471B4B9A6942F480124E
:100428009A61D3F8182442F48032C3F81824174A82
:10043800936943F4803343F0020393617047124B8E
:100448009A6942F480129A61D3F8182442F48032EF
:10045800C3F818240D4A936943F4003343F00103A9
:1004680093617047084BD3F8182442F00102C3F88F
:1004780018249A6942F010029A61044A936943F079
:1004880003039361704700BF000002400008024068
:10049800DFF834D00D480E490E4A002302E0D45844
:1004A800C4500433C4188C42F9D30B4A0B4C0023B4
:1004B80001E013600432A242FBD3FFF789FE00F08B
:1004C80011F8FFF78FFE704700000220000000209F
:1004D800000000205405000800000020240000202F
:1004E800FEE7000070B50D4D0D4C641BA4100026EE
:1004F800A64209D10B4D0C4C00F018F8641BA4104F
:100508000026A64205D170BD55F8043B9847013630
:10051800EEE755F8043B98470136F2E74C0500082A
:100528004C0500084C05000850050008F8B500BF48
:10053800F8BC08BC9E467047F8B500BFF8BC08BCBC
:040548009E46704714
:04054C00BD010008E5
:040550009901000805
:040000050800049952
:00000001FF
