:020000040800F2
:1000000000000220250200087502000875020008A1
:100010007502000875020008750200080000000063
:100020000000000000000000000000007502000851
:100030007502000800000000750200087502000843
:1000400075020008750200087502000875020008B4
:1000500075020008750200087502000875020008A4
:100060007502000875020008750200087502000894
:100070007502000875020008750200087502000884
:1000800075020008750200087502000800000000F3
:1000900000000000000000000000000075020008E1
:1000A0007502000875020008750200087502000854
:1000B0007502000875020008750200087502000844
:1000C0007502000875020008750200087502000834
:1000D00075020008750200087502000800000000A3
:1000E0007502000875020008750200080000000093
:1000F0000000000000000000000000007502000881
:100100000000000075020008750200087502000872
:1001100000000000000000000000000000000000DF
:1001200075020008750200087502000875020008D3
:100130007502000800000000000000000000000040
:100140000000000000000000000000007502000830
:1001500075020008750200087502000875020008A3
:100160007502000875020008000000000000000091
:10017000000000000000000000000000000000007F
:1001800000000000750200080000000000000000F0
:08019000750200087502000869
:1001980010B5054C237833B9044B13B10448AFF3B9
:1001A80000800123237010BD000000200000000023
:1001B800C002000808B5034B1BB103490348AFF35D
:1001C800008008BD0000000004000020C0020008F4
:1001D800034AD2F8883043F47003C2F88830704775
:1001E80000ED00E00B4A136B43F0010313630A4B65
:1001F8001A6842F480621A609A6842F400629A604F
:100208009A6942F400129A61034A936943F0200301
:100218009361F9E70038024000000240DFF834D06B
:100228000D480E490E4A002302E0D458C450043346
:10023800C4188C42F9D30B4A0B4C002301E013601D
:100248000432A242FBD3FFF7C3FF00F011F8FFF717
:10025800C9FF7047000002200000002000000020B5
:10026800E0020008000000201C000020FEE700005B
:1002780070B50D4D0D4C641BA4100026A64209D183
:100288000B4D0C4C00F018F8641BA4100026A64275
:1002980005D170BD55F8043B98470136EEE755F88F
:1002A800043B98470136F2E7D8020008D802000854
:1002B800D8020008DC020008F8B500BFF8BC08BC8A
:1002C8009E467047F8B500BFF8BC08BC9E4670470C
:0402D800BD0100085C
:0402DC00990100087C
:0400000508000225C8
:00000001FF
