:020000040800F2
:100000000000022089040008D9040008D90400086F
:10001000D9040008D9040008D90400080000000031
:10002000000000000000000000000000D9040008EB
:10003000D904000800000000D9040008D904000811
:10004000D9040008D9040008D9040008D90400081C
:10005000D9040008D9040008D9040008D90400080C
:10006000D9040008D9040008D9040008D9040008FC
:10007000D9040008D9040008D9040008D9040008EC
:10008000D9040008D9040008D904000800000000C1
:10009000000000000000000000000000D90400087B
:1000A000D9040008D9040008D9040008D9040008BC
:1000B000D9040008D9040008D9040008D9040008AC
:1000C000D9040008D9040008D9040008D90400089C
:1000D000D9040008D9040008D90400080000000071
:1000E000D9040008D9040008D90400080000000061
:1000F000000000000000000000000000D90400081B
:1001000000000000D9040008D9040008D904000840
:1001100000000000000000000000000000000000DF
:10012000D9040008D9040008D9040008D90400083B
:10013000D9040008000000000000000000000000DA
:10014000000000000000000000000000D9040008CA
:10015000D9040008D9040008D9040008D90400080B
:10016000D9040008D90400080000000000000000C5
:10017000000000000000000000000000000000007F
:1001800000000000D904000800000000000000008A
:08019000D9040008D90400089D
:1001980010B5054C237833B9044B13B10448AFF3B9
:1001A80000800123237010BD000000200000000023
:1001B8002405000808B5034B1BB103490348AFF3F6
:1001C800008008BD0000000004000020240500088D
:1001D800034AD2F8883043F47003C2F88830704775
:1001E80000ED00E008B500F02BF80CE0114B1B699E
:1001F80013F0040F03D0104B1878012811D00F4BBF
:10020800187800F085F80B4B1B6913F0040FEDD13B
:10021800094B1B78002BE9D100F06CF8064B1870DD
:10022800E4E7064C217800F06CF82070024B0022BD
:100238001A70E4E7000802401C0000201D0000209E
:100248002849D1F8302842F00103C1F83038264B4C
:10025800186840F480701860986840F4807098605E
:10026800986940F48010986142F00302C1F8302880
:10027800D3F8002442F00102C3F80024D3F808247C
:1002880042F00102C3F80824D3F8182442F480325B
:10029800C3F81824154A136B43F004031363144B73
:1002A8001A6842F005021A601A6822F040621A6061
:1002B8005A6822F003025A609A6842F005029A606E
:1002C800DA6822F00F02DA609A6942F440329A61E1
:1002D8001A6822F0C0021A601A6822F030021A6006
:1002E800704700BF00300240000002400038024062
:1002F800000802400023002B01DD01207047013374
:10030800F9E7481CC0B2052800D900207047000052
:10031800052800F2A880DFE800F0031D3853708D2F
:10032800514B9A6942F480129A61D3F8182442F426
:100338008032C3F818244D4A936943F440339361DB
:1003480000234B4A13704B4A13704B4A13704B4AA5
:1003580013707047444B9A6942F010029A61D3F8BF
:10036800182442F48032C3F81824404A936943F4AD
:10037800403393613E4B01221A7000233D4A1370AB
:100388003D4A13703D4A13707047374B9A6942F4DF
:1003980080129A61D3F8182442F00102C3F8182495
:1003A800324A936943F4403393610023304A13700F
:1003B800304A01211170304A1370304A1370704767
:1003C800294B9A6942F480129A61D3F8182442F4AE
:1003D8008032C3F81824254A936943F4803343F0E4
:1003E800020393610023224A1370224A1370224A9F
:1003F80001211170214A137070471B4B9A6942F40E
:1004080080129A61D3F8182442F48032C3F8182471
:10041800164A936943F4003343F0010393610023C0
:10042800134A1370134A1370134A1370134B0122A3
:100438001A7070470C4BD3F8182442F00102C3F825
:1004480018249A6942F010029A61084A936943F0A5
:10045800030393610123064A1370064A1370064A80
:100468001370064A137070470000024000080240EB
:1004780021000020200000201F0000201E00002076
:10048800DFF834D00D480E490E4A002302E0D45854
:10049800C4500433C4188C42F9D30B4A0B4C0023C4
:1004A80001E013600432A242FBD3FFF791FE00F093
:1004B80011F8FFF797FE70470000022000000020A7
:1004C800000000204405000800000020240000204F
:1004D800FEE7000070B50D4D0D4C641BA4100026FE
:1004E800A64209D10B4D0C4C00F018F8641BA4105F
:1004F8000026A64205D170BD55F8043B9847013641
:10050800EEE755F8043B98470136F2E73C0500084A
:100518003C0500083C05000840050008F8B500BF88
:10052800F8BC08BC9E467047F8B500BFF8BC08BCCC
:040538009E46704724
:04053C00BD010008F5
:040540009901000815
:040000050800048962
:00000001FF
