:020000040800F2
:10000000000002209D040008ED040008ED04000833
:10001000ED040008ED040008ED04000800000000F5
:10002000000000000000000000000000ED040008D7
:10003000ED04000800000000ED040008550400086D
:10004000ED040008ED040008ED040008ED040008CC
:10005000ED040008ED040008ED040008ED040008BC
:10006000ED04000865040008ED040008ED04000834
:10007000ED040008ED040008ED040008ED0400089C
:10008000ED040008ED040008ED0400080000000085
:10009000000000000000000000000000ED04000867
:1000A000ED040008ED040008ED040008ED0400086C
:1000B000ED040008ED040008ED040008ED0400085C
:1000C000ED040008ED040008ED040008ED0400084C
:1000D000ED040008ED040008ED0400080000000035
:1000E000ED040008ED040008ED0400080000000025
:1000F000000000000000000000000000ED04000807
:1001000000000000ED040008ED040008ED04000804
:1001100000000000000000000000000000000000DF
:10012000ED040008ED040008ED040008ED040008EB
:10013000ED040008000000000000000000000000C6
:10014000000000000000000000000000ED040008B6
:10015000ED040008ED040008ED040008ED040008BB
:10016000ED040008ED04000800000000000000009D
:10017000000000000000000000000000000000007F
:1001800000000000ED040008000000000000000076
:08019000ED040008ED04000875
:1001980010B5054C237833B9044B13B10448AFF3B9
:1001A80000800123237010BD000000200000000023
:1001B8003805000808B5034B1BB103490348AFF3E2
:1001C800008008BD00000000040000203805000879
:1001D800034AD2F8883043F47003C2F88830704775
:1001E80000ED00E008B500F03BF800F069F800F019
:1001F800D3F800F007F904E0074A936943F00203D3
:100208009361064B1B78002BF6D1034A936943F49C
:1002180000339361F5E700BF000802401C0000208E
:1002280000B500F00700C0F1070CBCF1040F28BFAF
:100238004FF0040C031D062B0FD9C31E4FF0FF3ED1
:100248000EFA0CF021EA000199400EFA03FE22EAA8
:100258000E0241EA02005DF804FB0023EEE700000D
:10026800154A136B43F004031363144B1A6822F006
:10027800C0021A60DA6842F04002DA601A6842F096
:10028800A87242F48A321A609A6842F0A87242F45C
:100298008A329A609A6942F0EB529A611A6842F47B
:1002A80000221A609A6842F440229A605A6A22F040
:1002B800F0025A62704700BF00380240000802404E
:1002C800334A136823F0F80343F0800313600023D4
:1002D80093602F4B9B6813F00C0FFAD12C4A1368CC
:1002E80023F0807313602A4B1B6813F0007FFAD148
:1002F800274A136823F410231360254B1B6813F453
:10030800003FFAD1224B1A6822F480221A601A6838
:1003180042F001021A601E4B1B6813F0020FFAD05C
:100328001B4B00225A605A685A605A6842F0080209
:100338005A605A6842F4C0525A605A6822F48032AD
:100348005A605A6842F080625A609A6842F0020223
:100358009A609A689A609A6842F480529A609A6899
:100368009A609A6822F040429A609A6842F0405235
:100378009A6008490A6842F003020A601A6842F063
:1003880080721A60024B1B6813F0007FFAD0704726
:1003980000380240003C024008B5164A536C43F44A
:1003A80080435364A2F58032936843F4005393600A
:1003B800114B1A6842F008021A605A6822F00802C3
:1003C8005A609A6842F008029A60DA6842F00802B5
:1003D800DA600A4BD86800221146C0F30220FFF702
:1003E8001FFF0001C0B2064B83F809034FF40072E7
:1003F8001A6008BD00380240003C014000ED00E0F2
:1004080000E100E04FF0E0231A6922F001021A61CE
:100418001A6942F002021A611A6942F004021A616A
:100428005A6902F07F4242F4BB3242F0FF025A613D
:100438009A6902F07F4242F4BB3242F0FF029A61AD
:100448001A6942F001021A6170470000024A1388D3
:1004580001331380704700BF200000200A4A138828
:1004680001339BB21380012B07D9084A137883F014
:1004780001031370044B00221A80054A536943F0A4
:1004880008035361704700BF1E0000201C000020B5
:10049800003C0140DFF834D00D480E490E4A0023D5
:1004A80002E0D458C4500433C4188C42F9D30B4A20
:1004B8000B4C002301E013600432A242FBD3FFF788
:1004C80087FE00F011F8FFF78DFE7047000002204C
:1004D800000000200000002058050008000000204F
:1004E80024000020FEE7000070B50D4D0D4C641B84
:1004F800A4100026A64209D10B4D0C4C00F018F8A8
:10050800641BA4100026A64205D170BD55F8043B13
:1005180098470136EEE755F8043B98470136F2E76D
:10052800500500085005000850050008540500084B
:10053800F8B500BFF8BC08BC9E467047F8B500BFC8
:08054800F8BC08BC9E46704798
:04055000BD010008E1
:040554009901000801
:040000050800049D4E
:00000001FF
