:020000040800F2
:1000000000000220150400086504000865040008CB
:10001000650400086504000865040008000000008D
:10002000000000000000000000000000650400085F
:10003000650400080000000065040008650400086D
:1000400065040008650400086504000865040008EC
:1000500065040008650400086504000865040008DC
:1000600065040008650400086504000865040008CC
:1000700065040008650400086504000865040008BC
:10008000650400086504000865040008000000001D
:1000900000000000000000000000000065040008EF
:1000A000650400086504000865040008650400088C
:1000B000650400086504000865040008650400087C
:1000C000650400086504000865040008650400086C
:1000D00065040008650400086504000800000000CD
:1000E00065040008650400086504000800000000BD
:1000F000000000000000000000000000650400088F
:10010000000000006504000865040008650400089C
:1001100000000000000000000000000000000000DF
:10012000650400086504000865040008650400080B
:10013000650400080000000000000000000000004E
:10014000000000000000000000000000650400083E
:1001500065040008650400086504000865040008DB
:1001600065040008650400080000000000000000AD
:10017000000000000000000000000000000000007F
:1001800000000000650400080000000000000000FE
:08019000650400086504000885
:1001980010B5054C237833B9044B13B10448AFF3B9
:1001A80000800123237010BD000000200000000023
:1001B800B004000808B5034B1BB103490348AFF36B
:1001C800008008BD0000000004000020B004000802
:1001D800034AD2F8883043F47003C2F88830704775
:1001E80000ED00E008B500F02FF800F047F800F047
:1001F80065F80CE0114B1B6913F4005F03D0104B3A
:100208001878012811D00F4B187800F089F80B4B9B
:100218001B6913F4005FEDD1094B1B78002BE9D162
:1002280000F070F8064B1870E4E7064C217800F0EF
:1002380070F82070024B00221A70E4E700080240B0
:100248001C0000201D0000200A4AD2F8303843F074
:100258000103C2F83038084B1A6842F480721A60F9
:100268009A6842F480729A609A6942F480129A619C
:10027800704700BF00300240000002400D4AD2F82B
:10028800303843F00203C2F830380B4BD3F800245F
:1002980042F00102C3F80024D3F8082442F0010216
:1002A800C3F80824D3F8182442F48032C3F8182479
:1002B800704700BF00300240000002400F4A136B35
:1002C80043F0040313630E4B1A6842F005021A60E8
:1002D8001A6822F040621A605A6822F003025A60D3
:1002E8009A6842F005029A60DA6822F00F02DA6032
:1002F8009A6942F440329A61704700BF0038024060
:10030800000802400023002B01DD01207047013363
:10031800F9E7481CC0B2052800D900207047000042
:1003280005286DD8DFE800F003142536495C354B05
:100338009A6942F480129A61D3F8182442F4803200
:10034800C3F81824304A936943F4403393617047E3
:100358002C4B9A6942F010029A61D3F8182442F49F
:100368008032C3F81824284A936943F440339361D0
:100378007047244B9A6942F480129A61D3F8182482
:1003880042F00102C3F818241F4A936943F440332A
:10039800936170471B4B9A6942F480129A61D3F8B3
:1003A800182442F48032C3F81824174A936943F496
:1003B800803343F0020393617047124B9A6942F409
:1003C80080129A61D3F8182442F48032C3F81824B2
:1003D8000D4A936943F4003343F001039361704776
:1003E800084BD3F8182442F00102C3F818249A697C
:1003F80042F010029A61044A936943F0030393613F
:10040800704700BF0000024000080240DFF834D007
:100418000D480E490E4A002302E0D458C450043354
:10042800C4188C42F9D30B4A0B4C002301E013602B
:100438000432A242FBD3FFF7CBFE00F011F8FFF71E
:10044800D1FE7047000002200000002000000020BC
:10045800D00400080000002020000020FEE7000073
:1004680070B50D4D0D4C641BA4100026A64209D191
:100478000B4D0C4C00F018F8641BA4100026A64283
:1004880005D170BD55F8043B98470136EEE755F89D
:10049800043B98470136F2E7C8040008C80400087E
:1004A800C8040008CC040008F8B500BFF8BC08BCB4
:1004B8009E467047F8B500BFF8BC08BC9E4670471A
:0404C800BD0100086A
:0404CC00990100088A
:0400000508000415D6
:00000001FF
